{
  "contractName": "Notary",
  "abi": [
    {
      "inputs": [],
      "payable": false,
      "stateMutability": "nonpayable",
      "type": "constructor"
    },
    {
      "constant": false,
      "inputs": [
        {
          "internalType": "bytes32",
          "name": "hash",
          "type": "bytes32"
        }
      ],
      "name": "addDocHash",
      "outputs": [],
      "payable": false,
      "stateMutability": "nonpayable",
      "type": "function"
    },
    {
      "constant": true,
      "inputs": [
        {
          "internalType": "bytes32",
          "name": "hash",
          "type": "bytes32"
        }
      ],
      "name": "findDocHash",
      "outputs": [
        {
          "internalType": "uint256",
          "name": "",
          "type": "uint256"
        },
        {
          "internalType": "uint256",
          "name": "",
          "type": "uint256"
        }
      ],
      "payable": false,
      "stateMutability": "view",
      "type": "function"
    }
  ],
  "bytecode": "0x608060405234801561001057600080fd5b50610186806100206000396000f3fe608060405234801561001057600080fd5b50600436106100365760003560e01c8063133a48f31461003b5780634cf00d3f14610069575b600080fd5b6100676004803603602081101561005157600080fd5b81019080803590602001909291905050506100b2565b005b6100956004803603602081101561007f57600080fd5b81019080803590602001909291905050506100ff565b604051808381526020018281526020019250505060405180910390f35b6100ba610137565b60405180604001604052804281526020014381525090508060008084815260200190815260200160002060008201518160000155602082015181600101559050505050565b600080600080848152602001908152602001600020600001546000808581526020019081526020016000206001015491509150915091565b60405180604001604052806000815260200160008152509056fea265627a7a72315820a1046974bee0f3a65742247b2b6db7ff43266c4dc20d298b2642adc7cecaf44764736f6c63430005100032",
  "source": "// SPDX-License-Identifier: MIT\npragma solidity >=0.4.22 <0.9.0;\n// pragma expression to specify a minimum compiler version (0.4.4) for this code. The code should compile with anything below version 0.5.0.\n// pragma solidity ^0.4.4; \n\n// declare the Notary contract\ncontract Notary {\n\n  // declare a struct datatype, instances of which will be used to store records of the documents we wish to fingerprint\n  struct Record {\n    // The struct has two entries of type uint, which is an unsigned 256-bit integer. \n    // The fields are a timestamp and the block number at which the transaction supplying the hash value of our files is mined.\n    uint mineTime;\n    uint blockNumber;\n  }\n  \n  // state variable\n  // This will actually be stored on the blockchain and maps 32-byte values, our SHA-256 hashes, \n  // to an instance of our previously declared Record struct. \n  // A mapping is essentially a hash table, which you may know from other programming languages. \n  // The SHA-256 hash will actually be used as the key to find the corresponding record.\n  mapping (bytes32 => Record) private docHashes;\n  \n  // constructor of our contract. \n  // Constructors are called at contract deployment and serve for initialisation tasks. \n  // As our contract is very simple we do not need to do anything special here, so we just leave the constructor empty.\n  constructor() public {\n    // constructor\n  }\n\n  // function that is used to store records on the blockchain\n  // Note that the function takes a hash value as an argument. We could send the actual file content to the contract and calculate the hash value in the contract code, but this would be a poorer design decision for a number of reasons: First of all, contract execution has an associated cost in gas, which is translated to Ether via the gas price, and is charged to the caller of the transaction. The more work to be done, the costlier the transaction will be. Secondly, users should not have to send their files across the network. There is no reason for user data to leave the owner’s machine, as SHA-256 hashes can be calculated locally. Finally, independent of transaction fees, sending large files over the network is just much more inefficient than sending the SHA-256 hash.\n  // the addDocHash function is declared public, so that it can be accessed externally\n  function addDocHash (bytes32 hash) public {\n    // The memory keyword used in the local Record declaration means that it won’t be saved to storage\n    Record memory newRecord = Record(block.timestamp, block.number);\n    // Storing it is eventually achieved by saving the data to the docHashes mapping, which is an in-storage state variable\n    docHashes[hash] = newRecord;\n    // When the addDocHash function is called in a transaction, the same transaction is executed by all nodes trying to include the transaction in a new block. The winning miner node that eventually seals the block sets the correct block number and mine time. Note, that whilst the timestamp can be manipulated by the miner in theory, it still needs to be larger than the previous block’s and lower than the next block’s timestamp. Therefore, any discrepancies will be minimal.\n  }\n  \n  // a way to verify wether a hash exists on the blockchain and retrieve the corresponding record\n\n  // function findDocHash (bytes32 hash) public constant returns(uint, uint) {\n  // One important fact to notice is the \"constant\" keyword in the findDocHash function declaration. This indicates that the function does not alter state and can therefore be executed in a call, rather than a transaction. Calls may read state of a local Ethereum node and do not have to be propagated through the network and mined. They therefore do not require any gas and are free to use.\n  // ! Note: constant on functions used to be an alias to view, but this was dropped in version 0.5.0. --> picked from: https://docs.soliditylang.org/en/v0.8.13/contracts.html\n  function findDocHash (bytes32 hash) public view returns(uint, uint) {\n    // returns the corresponding mine time and block number for a given hash as a tuple (Solidity can have multiple return values)\n    // If a hash is not in the mapping the code will return (0,0). We could in fact add a test wether the hash exists and throw an exception, but as (0,0) is a pretty clear indicator for failure to find a hash, we can deal with this off-chain in the client code\n    return (docHashes[hash].mineTime, docHashes[hash].blockNumber);\n\n    // A good rule of thumb is to only include code that benefits from the blockchain’s properties in your contract. The rest is better off in client side code.\n  }\n\n}\n",
  "sourcePath": "/home/vmanolas/src/blockchain/eth-doc-cert-contract-app-uniwa/contracts/Notary.sol",
  "compiler": {
    "name": "solc",
    "version": "0.5.16+commit.9c3226ce.Emscripten.clang"
  },
  "schemaVersion": "3.4.5",
  "updatedAt": "2022-07-02T16:52:00.982Z",
  "devdoc": {
    "methods": {}
  },
  "userdoc": {
    "methods": {}
  }
}